S01400006E6577706C616E5F666C61742E7372656315
S3150200000080200022B93100027D300002B5310002A3
S31502000010B5310002B5310002B5310002B531000238
S31502000020000000000000000000000000B5310002E0
S31502000030B531000200000000B5310002790100026C
S31502000040111400021D130002C11400020D15000254
S315020000502D240002F51D0002891F0002AD200002B8
S31502000060912100023D080002CD080002A909000202
S315020000708D0A0002111400021D130002C1140002AF
S309020000800D15000250
S31502000084101F0000101F00000053070001000000AB
S31502000094FFFFFFFF180000220000000008290822C3
S315020000A470290822D8290822000000000000000056
S315020000B40000000000000000000000000000000034
S315020000C40000000000000000000000000000000024
S315020000D40000000000000000000000000000000014
S309020000E40000000010
S315020000E80348044B834202D0034B03B118477047B7
S315020000F8640000226400002200000000064B074943
S31502000108C91A891048BF0131491003D0044B0BB1F3
S3150200011801481847704700BF6400002264000022A5
S315020001280000000010B5064C237843B9FFF7D8FF44
S31502000138044B13B10448AFF300800123237010BDAA
S31502000148B02000220000000084A2000308B5054B77
S315020001581BB105490548AFF30080BDE80840FFF723
S31502000168CDBF00BF00000000B420002284A2000315
S31502000178054A06491368013313600B68DB0702D583
S315020001884A68034B1A607047CC200022001000E030
S315020001981C23082270B500F079F81AF0F9FCEFF37F
S315020001A808801AF0FDFC284B284A1B68A2FB032389
S315020001B89B09013BB3F1807F0AD24FF0E022F0257A
S315020001C800200721224C536184F823509061116163
S315020001D805F0B0FB1F4BD3E9011218681268904765
S315020001E808B100BFFDE74FF47A710A2002F0FEFE5D
S315020001F805F00CFD184C194E04F154053146184801
S315020002080CF0BCFA18F0EAFC0021606E13F05EFAF4
S315020002180021284613F05AFA032005F09DFC1148DE
S3150200022805F078FD104805F075FD03F019FB05F099
S315020002389BFD03F037FB0028F9D00C4805F06AFD50
S3150200024818F0FCFCDAE700BFA0220822D34D6210A0
S3150200025800ED00E02C9A020228270822D020082264
S31502000268D020002230F3010250F3010290F301027A
S31502000278022800D070470249024801F077BA00BF47
S31502000288B89B0202D0200822704700BFFFF7FCBFC6
S3150200029808B5FFF77FFF002008BD00BF844600208F
S315020002A8CCE90A32CCF82410704700BF002210B5F8
S315020002B8436802605A69044622B1936810681B6A49
S315020002C8984763681A6922B1936810681B6A984747
S315020002D8636893F90220002A0EDB01212448530998
S315020002E802F01F02203301FA02F240F82320BFF37C
S315020002F84F8FBFF36F8F636893F90120002A0EDBD5
S3150200030801211B48530902F01F02203301FA02F2A7
S3150200031840F82320BFF34F8FBFF36F8F6368012224
S3150200032893F903301248590903F01F03203102FAE0
S3150200033803F340F82130BFF34F8FBFF36F8F636823
S3150200034893F90430590903F01F039A4001F1200377
S3150200035840F82320BFF34F8FBFF36F8FA26805497A
S315020003689368002023F001039360A368996610BD81
S3150200037800E100E0000080FD2DE9F0411D4683689A
S315020003889DF818C01E6E002E67D1BCF10F0F0446E9
S315020003980F46C0E90312C0E90566C56180F820C0A8
S315020003A854D8BCF1070F94BF4FF000084FF001086C
S315020003B863685969C9B14FF0020CA5615B69A8B2B5
S315020003C859680968C881C8788A6068F30510C870D0
S315020003D888786CF383008870002A42D09A68186875
S315020003E853689847002834D163681A69CAB102204B
S315020003F865611A69ADB253681968CB78CD8168F31D
S31502000408051360F383034F60CB70002F30D0A068CA
S31502000418836823F480138360936810685B6898473F
S31502000428B8B90121A26894F82000536923F4F81395
S3150200043843EA00435361A3683046D966A2689368C3
S3150200044843F480130B439360BDE8F0814FF0020832
S31502000458AEE706463046BDE8F08108263046BDE8D6
S31502000468F081C0B262F38300054A88708A60B5E7F4
S315020004780448DBB267F38303CB704860C7E700BF63
S31502000488042208220022082210B594468E461C46EB
S3150200049882B00021724663460094FFF76DFF02B0F0
S315020004A810BD00BF10B594461C4682B000226346B2
S315020004B80094FFF761FF02B010BD00BF10B49DF8AB
S315020004C8044001945DF8044BFFF756BF30B5836AC2
S315020004D885B004468C4601ADABB193E8070085E8C2
S315020004E8070062681846127883F804C01A60E26A3E
S315020004F89A60636A9847A36A1BB195E8070083E87E
S31502000508070005B030BD2B46EBE700BF2DE9F04FDB
S315020005180B78D1F8108003F5800303F557530D467F
S31502000528044683B01F02B8F1000F13D04FF00062E1
S31502000538D8F804301B681A60D8F804301B689F6024
S31502000548D8E90113D8F800001B6898470646002820
S3150200055840F014816B6983B14FF400215A6812681E
S3150200056811605A6812685760D3E90112186812684E
S3150200057890470646002840F0058100236560A96970
S31502000588A54A6162E969C4E90A312B7803F5800351
S3150200059803F557531B02A360687A697B002818BFC4
S315020005A84FF44412EB7A0903AE7A41EA43012B6A05
S315020005B831431D78DE7942EAC672002D40F0EF809B
S315020005C8B0FA80F56D0941EAC5115D7842F4003644
S315020005D8002D08BF32469F78DE7842EA0575B74095
S315020005E84FEA066C1E7A47EA06271E79B2462EB1EC
S315020005F8022E0CBF4FF4401A4FF4001A5A793AB138
S31502000608012A45F4807645F440720CBF15463546F4
S315020006185A7A02F003024CEA82069A790E4301924A
S31502000628002840F0BF8093F80C90DA7A4FEA09491D
S315020006389B7A49EA022946F4604649EA0309EFF336
S31502000648108B4FF0010888F31088636873491B788A
S315020006584868C3F1130308FA03F320EA03034B605D
S315020006684B689620414602F0C1FC8BF310886C4A0F
S31502000678A36801999A66A36825F080421F61A36858
S31502000688C3F80490A368C3F80CA0A3685E61A368C4
S315020006981964A3689A60A3689A689D60636893F967
S315020006A80220002A80F281805E4893F90120002AFE
S315020006B826DB5B7902F160451B015B49DBB205F576
S315020006C8614585F8003302F5C65340F8224051F8D1
S315020006D8235025F4803541F8235051F82330BFF3CF
S315020006E85F8F012153099B0002F01F0203F1604349
S315020006F803F5614301FA02F2C3F880211A606368BE
S3150200070893F90420197A002A4FEA0113DBB27CDB3B
S3150200071802F1604101F5614181F80033424B40F82C
S31502000728224002F5C65153F8215025F4803543F884
S31502000738215053F82130BFF35F8F012153099B00E3
S3150200074802F01F0203F1604303F5614301FA02F264
S31502000758C3F880211A60636893F90320DB79002ABB
S315020007684BDB1B0102F16041DBB201F5614181F805
S31502000778003300262D4B40F822402360304603B052
S31502000788BDE8F08FB8F1000FF8D0D8F80830D8F8DD
S3150200079800001B6A9847304603B0BDE8F08F42F066
S315020007A8807212E74FF0000949E79B7902F160412E
S315020007B81B011C48DBB201F5614181F800331A4B73
S315020007C840F8224002F5C65153F8215025F48035E7
S315020007D843F8215053F82130BFF35F8F510989003E
S315020007E802F01F0201F1604108FA02F201F56141C5
S315020007F8C1F880210A60636857E70D4902F00F05C0
S315020008081B01DBB229440B76B3E7094902F00F054F
S3150200081829440B7682E700BF0010314000302040A1
S31502000828000080FD502208220060004049505352C1
S31502000838FCEC00E0EFF30383103B1F4A5BB203F5BF
S31502000848C65152F8210020F4803042F8210052F8AD
S3150200085821201A4A52F82330D3E906218A421CD0AB
S315020008681869996828B393F820C00968BCF10F0F74
S315020008780FD8BCF1070F8CBF20F812108154996863
S315020008884FF000408866D969013291429A6104D0D4
S31502000898704740F822109968F2E75B6893F90330CB
S315020008A8012203F01F0006495B09824041F8232012
S315020008B870470868E4E700BF00600040502208223B
S315020008C800E100E030B4EFF30383103B31495BB239
S315020008D803F5C65251F8220020F4803041F822006E
S315020008E851F822202C4A52F823305D682A6A507839
S315020008F801281ED05A69DC69A2420FD0D3E9020147
S31502000908A9B193F820400F2C0AD951F82210016098
S315020009184FF000509968013288665A6130BC7047B8
S31502000928072C03D931F812100160F1E7895C0160DE
S31502000938EEE7DC695A6904F1FF3C62450CD0296985
S315020009480029D9D095F90320144902F01F04A040C2
S31502000958520941F82200CDE795F9034004F5C6523B
S3150200096851F8225025F4803541F8225051F82220B8
S31502000978BFF35F8F6209920004F01F0402F160421E
S3150200098800FA04F402F56142C2F8804114605A6919
S31502000998DC69B1E7006000405022082200E100E06D
S315020009A830B4EFF30382103A334953B203F5C65013
S315020009B851F8204002F0FF0224F4803441F8204026
S315020009C851F820102D4951F823008168096D8901D3
S315020009D805D54168497A012901D030BC7047012101
S315020009E8274C5B0902F01F02203301FA02F244F88F
S315020009F82320BFF34F8FBFF36F8F436893F90230FB
S31502000A08002B08DA82680121936823F001039360B8
S31502000A1830BCFFF75BBD5A0903F01F0301FA03F363
S31502000A28203244F82230BFF34F8FBFF36F8F8468AA
S31502000A38114BA26822F00102A260426892F90220D2
S31502000A4802F5C65453F8245025F4803543F8245049
S31502000A5853F82430BFF35F8F53099B0002F01F023D
S31502000A6803F16043914003F56143C3F880111960AD
S31502000A78012130BCFFF72ABD00600040502208223F
S31502000A8800E100E070B5EFF30383354A103B5CB230
S31502000A9852F82460736893F90230002B1DDAB268A3
S31502000AA8936823F001039360B3682E4A1D6D9A6614
S31502000AB82A0150D4EB0140D405F0A055B5F1A05F48
S31502000AC844D0294A04F5C65352F8231021F480313A
S31502000AD842F8231052F8233070BD012223485909DF
S31502000AE803F01F03203102FA03F340F82130BFF363
S31502000AF84F8FBFF36F8FB0681B4B816821F00101DE
S31502000B088160716891F9021001F5C65053F82050B8
S31502000B1825F4803543F8205053F82030BFF35F8F11
S31502000B284B099B0001F01F0103F160438A4003F55C
S31502000B386143C3F880211A60B6E70421304605F0FE
S31502000B48A055FFF7C3FCB5F1A05FBAD1082130461C
S31502000B58FFF7BCFCB5E705213046FFF7B7FCA9E766
S31502000B6850220822000080FD0060004000E100E0FB
S31502000B7803460020C3E90512704700BF844610B435
S31502000B88006A836823F440138360DCF82040A36C70
S31502000B985800FCD5A36823F01003A360DCF82040B4
S31502000BA8237FC3F30010DB06FAD4CCE90312A36849
S31502000BB843F01013A3605DF8044B70478446002087
S31502000BC8CCE90A32CCF82410704700BF034670B449
S31502000BD800251E6A2846B26822F4441424F0110439
S31502000BE8B460DD601C6A096822F4401221611B6A3E
S31502000BF89A6070BC704700BF4FF0FF330020C1E90E
S31502000C08003370470246880722D5106A836823F4A0
S31502000C1840138360106A836C5B00FCD5836823F0FB
S31502000C2810038360106A037FDB06FCD413788BB942
S31502000C38002318461361CB0709D500211378916161
S31502000C4823B1126A536A43F40003536200207047C1
S31502000C580620F0E7436A43F400434362E8E700BF2D
S31502000C68002283690B600378826123B1026A536AA0
S31502000C7843F4000353620020704700BF0620704702
S31502000C8830B40124164D530902F01F0C203304FA1E
S31502000C980CF445F82340BFF34F8FBFF36F8F114B08
S31502000CA802F5C65C53F82C4024F4803443F82C40F1
S31502000CB853F82C300901002AC9B207DB0A4B15443E
S31502000CC885F8001343F8220030BC7047074B02F040
S31502000CD80F0423441976044B43F8220030BC7047AC
S31502000CE800E100E00060004050220822FCEC00E02F
S31502000CF8F0B5846A85B005460F4694466E46B4B189
S31502000D0894E80F0086E80F00EB6920461B78A76077
S31502000D18236084F804C0EB6AE3606B6A9847AC6A9E
S31502000D281CB196E80F0084E80F0005B0F0BD344602
S31502000D38EAE700BFF8B53F4B42689A4277D1026AA2
S31502000D480446936823F4401393600378002B65D115
S31502000D58226A936823F010039360226A137FC3F30F
S31502000D680015DB06FAD40121E369334A93F9073001
S31502000D78580903F01F03203001FA03F342F8203022
S31502000D88BFF34F8FBFF36F8FE36993F909305809A1
S31502000D9803F01F0301FA03F3203042F82030BFF3B1
S31502000DA84F8FBFF36F8F206A836823F48033836083
S31502000DB8E36993F90530580903F01F0301FA03F3AF
S31502000DC8203042F82030BFF34F8FBFF36F8FE369AD
S31502000DD893F90B30580903F01F0301FA03F3203085
S31502000DE842F82030BFF34F8FBFF36F8FEFF31086B1
S31502000DF881F310884FF00043E769104A97F800C05C
S31502000E08506823FA0CF3034353605368962002F0A2
S31502000E18EDF886F3108865602846F8BD0021026A57
S31502000E28536A43F400435362036A596190E7072001
S31502000E38F8BD00BF4249435300E100E000302040BC
S31502000E48062070472DE9F0410026012740F21F22AD
S31502000E580B78067003F5800303F556531B020362EB
S31502000E680B78C16107FA03F3134214BF3B463346B4
S31502000E781B0103704B69827843628B6967F301022F
S31502000E88C0E90A63CE6982704B780D46002B14BFFF
S31502000E983A4602228378044662F30103837091F983
S31502000EA80B20897AFFF7ECFE95F905202979FFF7D9
S31502000EB8E7FE95F90720A979FFF7E2FE95F90920D9
S31502000EC8297AFFF7DDFEEFF3108887F310884FF0D3
S31502000ED800412A78824BD1405A6822EA01025A60B6
S31502000EE85B689620394602F081F888F310884FF439
S31502000EF88062236A9A606B78E978EA691B02890339
S31502000F0801F4804103F440730B4351785068C903D6
S31502000F1889B20B43517B490501F400110B43117841
S31502000F28090601F040710B43217809B143F4801395
S31502000F38216A43F480534B611378991E012940F2C2
S31502000F48C8800368216A0B61117BAB7801F0030143
S31502000F5841F0300133B1022B14BF4FF440734FF402
S31502000F6880731943002093781B0703F080530B43C1
S31502000F78216ACB60236A986123789BB1236A59490F
S31502000F885962E1692378C969206A097A013B456A87
S31502000F9819401B06090403F070632B4301F4702100
S31502000FA80B43436201210020937BD57B127C0B40C5
S31502000FB805F01F0543EA052302F01F0243EA02432E
S31502000FC8226A1363C4E90300C4E90500236A758922
S31502000FD8454A25819A66226A444B1167E26992F963
S31502000FE8052002F5C65553F8256060F3104643F806
S31502000FF8256053F82550BFF35F8F02F01F0552098B
S31502001008920002F1604201FA05F502F56142C2F860
S3150200101880511560E26992F90B2002F5C65553F81C
S31502001028256060F3104643F8256053F82550BFF350
S315020010385F8F02F01F055209920002F1604201FA1F
S3150200104805F502F56142C2F880511560E26992F926
S31502001058072002F5C65553F8256060F3104643F893
S31502001068256053F82550BFF35F8F02F01F0552091A
S31502001078920002F1604201FA05F502F56142C2F8F0
S3150200108880511560E26992F9092002F5C65553F8AE
S31502001098256060F3104643F8256053F82530BFF300
S315020010A85F8F53099B0002F01F0203F160439140D0
S315020010B803F56143C3F8801119600D4A236A9A60E1
S315020010C8226A137FDB07FCD50A4B00206360BDE862
S315020010D8F0810949022B094B18BF0B4632E700BFBC
S315020010E800302040008080001000079D006000400C
S315020010F8110401004249435304FF00FF24FF00FF85
S315020011082DE9F04F9A461B688FB003F0FF1323F4BC
S31502001118803343F0004343F47F437A4C05900A91A7
S31502001128CAF8003094F85430154603F00F03072B1B
S3150200113800F2E480DFE803F004040484827C7E8003
S3150200114801249C406F4B93F8550000F00F0001F004
S31502001158E7FEB0FBF4F26C4B04929D4264DC002677
S3150200116801330193A2FB03130993130A089102930D
S315020011780B960D95F3B2002400930C9602E0013407
S315020011880D2C4AD0614B009A1F5DC7F34009C7F37D
S31502001198800849EA08039342F1D15D4B33F814609B
S315020011A8059B03FB06F6049BB3FBF6F2531EFF2BC5
S315020011B80393E4D8DDE9080102FB06FB1D465A46FD
S315020011C84FEAEB731BF066FA0A9A002A42D1A0F597
S315020011D8C330A0380028019BB8BF40428342CEDD07
S315020011E8039BC7F300028AF801309AF80030C7F366
S315020011F8C10762F3041369F3451368F386138AF881
S3150200120800309AF80230013467F305138AF802307F
S315020012180A9B0D2C01900B93B4D10C9E96B9019B97
S315020012280D9A01269342A5DC00200FB0BDE8F08F87
S31502001238032487E7052485E70A2483E7082481E748
S3150200124806247FE70D9D019BAB42EDDD03200FB01F
S31502001258BDE8F08FCDE90698DDE9088903940B9F6E
S315020012685C46DDF804B005E0224640464946013DA3
S315020012781BF010FA029BB4FBF3F10A06CBB238D57F
S3150200128803FB00F0002800F1FF01B8BF0846001270
S31502001298A0F5C330A0380028B8BF404283451CDDFC
S315020012A81A4A03991F46515C9AF80030069A8346F1
S315020012B8C1F3000060F3041362F345139AF80200BF
S315020012C8079AC1F3C10161F3051062F386138AF81E
S315020012D801508AF802008AF800309AF80210A41B14
S315020012E841F00101E3178AF802108AF80370002D0B
S315020012F8BAD1039CCDF804B00B9740E71024083BFB
S315020013089C401FE700E001409F860100EC9F020215
S31502001318D09F020210B5EFF30383103B384A5BB243
S3150200132803F5C65152F8210020F4803042F8210014
S3150200133852F82120334A52F82300C3691B699BB12C
S31502001348036903B110BD026A0021936823F480136E
S3150200135843F400139360436AC160002BF2D0BDE8E0
S3150200136810408022FFF7C4BC046A03692246002B98
S31502001378EAD0037853B3626D02F03F0C9C4520D243
S31502001388C268837813E013782371837890F800E0B3
S3150200139803F003040CF1010CD0E90321E645A1EBA5
S315020013A804012244C0E90321046A0AD949B103F0B7
S315020013B80303022BE7D1138823F4DC439BB2636051
S315020013C8E3E7A36E43F00053A366B9E78378C168DF
S315020013D803F00303022B0DD00B7823718278D0E930
S315020013E8031302F003029B1A1144C0E90313002BEC
S315020013F8A8D1A8E70B8823F4DC439BB26360EDE728
S31502001408006000405022082210B582B0EFF3038331
S31502001418103B274A5BB203F5C65152F8210020F465
S31502001428803042F8210052F82120224A52F82340FD
S315020014382078236AD0B9A27802F0030102290CBFE8
S3150200144819681978A3690CBFC1F30801C9B20191D9
S31502001458B3B9636A23B120460422FFF749FC207810
S3150200146860B1236A1A6D12F47C5F03D01A6D12F406
S315020014787C5FE0D19A6E42F000429A6602B010BDD5
S3150200148802F0030201A960691BF0C0FBD4E9052139
S31502001498A37803F003031A44C91AC4E9052129B932
S315020014A8636A1BB101222046FFF722FC2078D7E7A0
S315020014B8006000405022082210B5EFF303830F4A5A
S315020014C8103B5CB252F82400026A936823F4401374
S315020014D823F010039360436A1BB102220021FFF72F
S315020014E807FC074A04F5C65352F8231021F4803143
S315020014F842F8231052F8233010BD00BF50220822AA
S315020015080060004038B5EFF303831D4A103B5CB216
S3150200151852F824008378056A03F00303022B0CBFF2
S3150200152829682978AA6C08BFC1F30801C2F30073B7
S31502001538C2F3006C4FEA031343EA4C13C2F3C062C8
S3150200154843EAC20C18BFC9B2DB06624604D5AB6CC5
S315020015581B0458BF4CF04002AB6E43F0C853AB664F
S31502001568436A0BB1FFF7C4FB064A04F5C65352F8A1
S31502001578231021F4803142F8231052F8233038BD63
S31502001588502208220060004010B40B0A064C1B01C8
S3150200159853FA81F154F821300020C3F340035DF871
S315020015A8044B1370704700BF000840400020012317
S315020015B88242CAB203FA02F39AB24FEA034308BF57
S315020015C81A460B0A5B0103F1804303F580039A600E
S315020015D8704700BF2DE9F84F0388DBB14FF0000AC8
S315020015E880464FF00109DFF8D4B00024314D4FEAA6
S315020015F8CA07D8F8043035F8022BD91989889142D6
S315020016080AD00134032CF4D1B8F800300AF1010AE1
S315020016185345EAD8BDE8F88FDB5909FA04F603F010
S31502001628B853B3F1807F244BF6B293F84C2C12D000
S31502001638324230D104F120021BF81230DB09E0D025
S315020016481BF81230012123F08003C8200BF8123050
S3150200165801F0CCFCD5E7324210D004F120021BF887
S315020016681230DB09CDD11BF81230012143F0800379
S31502001678C8200BF8123001F0B9FCC2E7012001F0CC
S3150200168861FD0D4B012093F84C2C324383F84C2C08
S3150200169801F028FDE1E7012001F054FD064B012087
S315020016A893F84C2C22EA060283F84C2C01F01AFD18
S315020016B8C0E700BFFC9F020200E001400020204074
S315020016C8F8B50646FFF786FFEFF31082012383F388
S315020016D81088234F3B681BB9402022490B750875B1
S315020016E83B6801333B6082F31088338800211BB3C1
S315020016F81D4D08E01B01134445F823403288013189
S315020017088BB29A4218D9736853F8314003EBC10277
S315020017189288E0034FEA1223D2B2EBD502EB03100A
S3150200172855F820E024F4803C2EF4803E45F820E06B
S315020017381B0145F820C0DEE7EFF31082012383F38D
S3150200174810883B6813B13B68013B3B603B681BB999
S31502001758802004490B75087582F31088F8BD00BF0E
S3150200176848220822000D40400008404008B5034BB5
S3150200177803600846FFF7A4FF002008BD54524F50E5
S3150200178870B5012686B001AB03A80C46154604932C
S31502001798ADF80C60ADF808100192FFF71BFFEFF3E6
S315020017A8108186F310881D4B1A681AB91C480275EF
S315020017B8402202751A6801321A6081F31088E90319
S315020017C84FEA1422E4B219D4110116480A1940F84C
S315020017D82250EFF31082012181F31088196811B1A2
S315020017E81968013919601B681BB980200C490B75E9
S315020017F8087582F31088002006B070BD09481101E9
S3150200180804EB021250F8226026F4803640F8226071
S3150200181825F4803640F82260D7E700BF482208221E
S31502001828000D4040000840400346002059601A72E5
S31502001838704700BF84460020CCE90E32CCF834103B
S31502001848704700BF0346044ADB6800209B1AB3FAB6
S3150200185883F35B090B7070474349495230B5836B72
S3150200186883B004460A466D46A3B193E8030085E8A9
S315020018780300E16B1A7119601846636B9847A36BEC
S315020018881BB195E8030083E80300002384F82B3094
S3150200189803B030BD2B46ECE730B5454B83B01B6A27
S315020018A801690193019B03F00F230193019A019D9C
S315020018B80B7C90F82C409CB9C2F30322DBB2A2EB54
S315020018C8156293409B0804D1082003B030BD013B42
S315020018D8FAD04A78C2F3C014D209F8D1CC71016998
S315020018E8002390F826408569026880F82B30C56186
S315020018F880F82D3080F8274080F82E3080F828307E
S3150200190880F82F30036280F83030546A227894F8CF
S3150200191801E0012A14BF4FF0040C4FF0050C62795E
S31502001928120142EA4E0294F806E042EACE124CEA64
S315020019380202D2B2CA7001690A7942F010020A7129
S3150200194801690A7963F3C3020A7101690A7963F3C1
S3150200195804120A710269E179137961F3C7131371E3
S315020019680269537943F001035371036893F90F30FF
S31502001978002B07DB012203F01F040E495B09A24074
S3150200198841F82320BF210269537A03F0F303537205
S315020019980369D97190F82C302BB1002380F82C30CA
S315020019A8002003B030BD022203695A70F8E700BF6F
S315020019B800E0014000E100E090F808C0C0E9051225
S315020019C8BCF1010F80F82A3008D10022436880F85A
S315020019D826C05B0080F8243080F82520002380F892
S315020019E82930FFF759BF00BF90F808C0C0E90512B1
S315020019F8BCF1010F80F82A300AD10022436880F828
S31502001A0826C05B0043F0010380F8243080F82520C5
S31502001A18012380F82930FFF73FBF00BF70B40024C6
S31502001A28402203691C7003691A70026913785B06FF
S31502001A38FCD5C0231370036802695B6A804D1B7963
S31502001A484FF0000C43F0E0031374036802695B6A03
S31502001A58B324DB7843F0E0035374036802695B6AD4
S31502001A689B781B0103F0700343F008039370036825
S31502001A7802695B6A1E78012E5E7814BF0423052369
S31502001A8843EA4603DBB2D37003685B68AB4214BF12
S31502001A987722F72203695A71036983F806C0036934
S31502001AA8DC7191F911204B7B6245C0F2AA801B01B9
S31502001AB802F16044DBB204F5614484F80033614CF8
S31502001AC8614B44F8220002F5C65553F8256026F400
S31502001AD8803643F8256053F82530BFF35F8F01251A
S31502001AE853099B0002F01F0203F1604303F56143A9
S31502001AF805FA02F2C3F880211A6091F90F204B7B8E
S31502001B08002AC0F295801B0102F16045DBB205F599
S31502001B18614585F800334C4B44F8220002F5C65558
S31502001B2853F8256026F4803643F8256053F82530A5
S31502001B38BFF35F8F012553099B0002F01F0203F1D1
S31502001B48604303F5614305FA02F2C3F880211A607D
S31502001B5891F910204B7B002A63DB1B0102F16045D9
S31502001B68DBB205F5614585F80033374B44F82200A8
S31502001B7802F5C65553F8256026F4803643F82560E3
S31502001B8853F82530BFF35F8F012553099B0002F0F6
S31502001B981F0203F1604303F5614305FA02F2C3F833
S31502001BA880211A6091F90E204B7B002A31DB1B013A
S31502001BB802F16041DBB201F5614181F80033224B43
S31502001BC844F8220002F5C65153F8214024F4803421
S31502001BD843F8214053F82130BFF35F8F012153099F
S31502001BE89B0002F01F0203F1604303F5614301FA09
S31502001BF802F2C3F880211A609F2203691A7070BC28
S31502001C087047124C02F00F051B01DBB22C442376F7
S31502001C1855E70E4902F00F051B01DBB229440B7684
S31502001C28CDE70B4D1B0102F00F06DBB2AB559CE765
S31502001C38074D1B0102F00F06DBB2AB556BE700BF7F
S31502001C4840420F005022082200600040FCEC00E0EF
S31502001C5814ED00E0F8B500250A781C4B0160134420
S31502001C681B0203618B680E4643600B7B04460372B4
S31502001C78CB6943630B6A80F82950C36380F82A50FC
S31502001C88856380F82B50C0E90555C0E9075580F8E9
S31502001C982C50EFF31087012181F310880C4A337810
S31502001CA85068C3F1090301FA03F320EA03035360F8
S31502001CB85368962001F09AF987F310882046314630
S31502001CC8FFF7ACFE034B2846E360F8BDE02540006B
S31502001CD8003020404349495238B500250369044675
S31502001CE8DD710168FFF79AFEB32290F82600A16912
S31502001CF8236984F82C5084F82800E561216284F867
S31502001D082A50DA71284638BD70B50025044603699B
S31502001D18DD710168FFF782FEB320012194F82630AF
S31502001D2884F82C5084F82830A36984F82A50C4E928
S31502001D38075323692B4AD8712369DD712368E56045
S31502001D4893F91130580903F01F0301FA03F32030FF
S31502001D5842F82030BFF34F8FBFF36F8F236893F992
S31502001D680E30580903F01F0301FA03F3203042F834
S31502001D782030BFF34F8FBFF36F8F236893F910306C
S31502001D88580903F01F0301FA03F3203042F8203002
S31502001D98BFF34F8FBFF36F8F236893F90F3058093C
S31502001DA803F01F0301FA03F3203042F82030BFF391
S31502001DB84F8FBFF36F8FEFF3108681F31088236876
S31502001DC8094A1B785068C3F1090301FA03F303436E
S31502001DD853605368962001F009F986F3108828465D
S31502001DE870BD00BF00E100E00030204010B582B0AF
S31502001DF8EFF30383103B5F4A5BB203F5C65352F80F
S31502001E08231021F4803142F8231052F82330EFF3DD
S31502001E180383594A103B5BB252F8234094F82D309B
S31502001E285BBBA369022B22D9E369012B0ED1226976
S31502001E38137943F0100313712269137943F00803E7
S31502001E4813712269137923F01003137123685B6AED
S31502001E58DB79002B3ED101222369DB7CDBB28DF8CC
S31502001E6807309DF8073084F82D2002B010BD22698C
S31502001E78137943F040031371D6E7E369002BF4D0D4
S31502001E882268526AD279FAB9032B17D0022B26D0C6
S31502001E98012B34D02269236AD17C6269D154D4E9F0
S31502001EA807320132013BC4E90732002BDDD1216931
S31502001EB80A7963F386120A7102B010BD2269137990
S31502001EC843F040031371E5E705212046FFF7C6FCF8
S31502001ED8E369D9E705212046FFF7C0FCBBE722697B
S31502001EE8137943F0100313712269137943F0080337
S31502001EF813712269137923F010031371CAE794F850
S31502001F082A2072B322681D4892F90F20510902F05D
S31502001F181F0203FA02F2203140F82120BFF34F8F45
S31502001F28BFF36F8F04202169CA7942F08002CA7111
S31502001F3821690A7942F010020A7121690A7922F0A6
S31502001F4808020A7121690A7922F010020A712269C5
S31502001F58507021694A7922F001024A7184F82C30BC
S31502001F6898E708212269537A03F0F7035372236923
S31502001F7859708FE7006000405022082200E100E015
S31502001F8810B5EFF30383103B434A5BB203F5C6531E
S31502001F9852F8231021F4803142F8231052F82330E4
S31502001FA8EFF303833D4A103B5BB252F8234094F8A1
S31502001FB82730002B40D194F82930002B3BD12368D7
S31502001FC85B6ADB792BB194F82B3013B9236A002BA1
S31502001FD85CD1E3692169002B41D1CB79C02223F078
S31502001FE88003CB71216901E0013A02D0CB79DB0982
S31502001FF8FAD12368284A93F9103003F5C65352F8E2
S31502002008231021F4803142F8231052F82330236832
S3150200201893F91030002B09DB01215A09204803F0F5
S315020020281F03603201FA03F340F822302269D3799A
S3150200203843F04003D37110BD94F82630032B1CD00D
S3150200204894F8242023699A7494F8282094F827305F
S315020020580132013B84F8282084F8273010BD236A10
S315020020686269D35C8B74D4E907320132013BC4E955
S315020020780732002BDFD12169AFE794F82830022B0B
S31502002088DED194F83030002BDAD110BD0521204676
S31502002098FFF7E4FB9DE700BF0060004050220822DC
S315020020A800E100E038B5EFF30383344A103B5BB234
S315020020B852F8234023685B6ADB79002B4BD194F8EC
S315020020C829301BB194F82730012B52D0E369E3B1CA
S315020020D82169C023CA7922F04002CA71216901E046
S315020020E8013B02D0CA795206FAD4EFF30383103BB6
S315020020F8234A5BB203F5C65352F8231021F4803102
S3150200210842F8231052F8233038BD94F82A203AB3FD
S31502002118012022681B4D92F90F20510902F01F0275
S31502002128203100FA02F245F82120BFF34F8FBFF3A0
S315020021386F8F4FF0040C2169CA7942F08002CA7186
S31502002148226982F801C021694A7963F300024A7159
S3150200215884F82C00BCE705212046FFF77FFBAEE793
S3150200216808212269537A03F0F703537223695970D7
S31502002178AEE794F83030002BAAD0A7E750220822FF
S315020021880060004000E100E038B5EFF303834F4AF0
S31502002198103B5BB252F823000269537A517ADC0685
S315020021A801F0E00151725FFA83FC03F003022CD5B9
S315020021B80369597849064ED40024012580F82B5024
S315020021C8DC710168FFF72AFCB32290F82630816990
S315020021D880F82830036980F82C400162C46180F8CF
S315020021E82A402946DA71FFF739FBEFF30383103BDE
S315020021F8374A5BB203F5C65352F8231021F48031ED
S3150200220842F8231052F8233038BD002A5CD11CF05C
S31502002218080F11D0C369002B45D190F82B30002B3B
S3150200222841D1B32290F829100369C1F10301C9B259
S31502002238DA71FFF713FBD8E790F82C200CF00403A9
S3150200224842B3002BD1D0C369002B3BD190F82B3077
S31502002258002B37D1E5E7002AAED15A78C2F38011AE
S315020022685206D4D5082280F82B105A7003680169E1
S315020022785A6A94791378527943EAC41343EA0213E1
S3150200228843F00203DBB2CB700269537943F00103D0
S315020022985371AAE7002BA8D003685B6ADB79002B87
S315020022A8A3D00421C5E70023B32190F826508469F8
S315020022B8026980F82C3080F828500462C36180F8DD
S315020022C82A30D1710121B4E7036975E75022082241
S315020022D800600040034670B4002591F902001B4CC9
S315020022E8820002F18042187102F54042D2F8006378
S315020022F8C2F800538A689A60CA68DA600878587120
S3150200230825540D79CA7842EA05124D7942EAC51270
S31502002318D2B2225493F9042002F5C65244F8226036
S3150200232893F90420002A0BDB4978094C090102F1CA
S315020023386040C9B200F5614080F8001344F82230C3
S31502002348044A00201A6070BC704700BF0060004053
S31502002358502208225543490090F904200E4B02F5F3
S31502002368C65153F8210020F4803043F8210053F86F
S315020023782130BFF35F8F012153099B0002F01F0230
S3150200238803F1604303F5614301FA02F2C3F88021BF
S315020023981A600020704700BF00600040012110B497
S315020023A890F90430084C5A0903F01F03994002F1C8
S315020023B8200344F82310BFF34F8FBFF36F8F00201B
S315020023C85DF8044B704700BF00E100E003460020B9
S315020023D8C3E90212704700BF90F904200346002A97
S315020023E819DB012010B451090C4C02F01F022031EE
S315020023F800FA02F244F82120BFF34F8FBFF36F8F22
S315020024080020074A93F9041042F8210000201860B8
S315020024185DF8044B704700201860704700E100E041
S315020024285022082210B582B0EFF30384194B103CF0
S3150200243864B253F82410184A4879135C03F003036C
S31502002448032B13D004F5C65452F8243023F48033F0
S3150200245842F8243052F824308B682BB14879CA687E
S31502002468CDE900206846984702B010BD8B6823B1B3
S31502002478CA68CDE9002068469847074B04F5C65452
S3150200248853F8242022F4803243F8242053F82430C7
S3150200249802B010BD50220822006000408446002087
S315020024A8CCE90732CCF81810704700BF03461A6801
S315020024B89B8A002013807047062070470023026813
S315020024C818461380704700BF03461B6800201B8806
S315020024D8C3F3C0330B70704703461B68103133F8D9
S315020024E81130002013807047034630B41031D3E907
S315020024F8005435F811302179002030BC012999B2EF
S315020025084FEA034308BF1946116070470620704711
S315020025180620704730B502698646BAB14FF0FF33D6
S3150200252801244FEA72721846013304FA03FC1CEAC4
S31502002538020FF8D0B2FA82F2DEF8003000F10E0489
S3150200254803EB4403C2F11F020B60121A01234FF078
S31502002558FF354FF47A644A600B72DEF804300B4A90
S315020025681B88002003EB43035B0003F5D7734B81FB
S31502002578DEF804301B88CD6004335B004B72D2F858
S315020025887C318C829BB2CB6030BD00BF00B011405B
S315020025982DE9F0470E4604468D4B09681D684368C7
S315020025A8006821F0C04789B2D3F81480D6E901231E
S315020025B88180216890B28882216898B20881216850
S315020025C8380CC880216822F0C042120CCA822268DE
S315020025D823F0C043DFF810C21B0C5381DCF820003D
S315020025E89CF82430C0F3031103F00F0241EA020CEF
S315020025F81CF0080F15D0DBB213F0080F4FEA1010C3
S3150200260840F0B28001239340020740F1B5800321CE
S3150200261800F0070201FA02F205FB03F3B3FBF2F537
S3150200262801E09540CD4041F23600D6E90012694BE9
S3150200263841EA0209A3FB0535AD0900FB05F5664B20
S31502002648A3FB0535AD0C0135072D38BF072519F053
S31502002658005340F0948019F0804F13D02268EDB2EF
S3150200266882F8DF50326843F4007112F0804F43F467
S31502002678006318BF0B46B26812F0804F43F002029D
S3150200268818BF134622689BB25382B37CF17C1B02A5
S31502002698226803F4E0630B43A2F86630F368002B62
S315020026A800F093801A89100511462DD52168A1F8E4
S315020026B8902021685889A1F89C0021689889A1F878
S315020026C89E00196820688DB2A0F894500D0C2068F7
S315020026D825F4C045ADB2A0F896502068C1F3417101
S315020026E880F89210596820688DB2A0F898500D0C9F
S315020026F8206825F4C045ADB2A0F89A502068C1F307
S31502002708417180F89310198989051ED42368A3F8A4
S3150200271890202368328AA3F8802098F804306BB197
S31502002728B7FA87F7226813889BB223F01F031F3371
S31502002738DB1B9BB21380A28A1343A382274B00207A
S31502002748E36033682361BDE8F087D87C997C01434E
S31502002758206880F8A6102168D889A1F8A800198AE5
S315020027682368A3F8AA10D1E7032203F0070302FAA3
S3150200277803F302073FF54BAF01228A404CE7EFF31A
S31502002788108A012181F31088154BDA6822F4800237
S31502002798DA60DB68962000F029FC8AF3108890221A
S315020027A8104B1A702368EAB283F8DE203368B268DF
S315020027B813F0005F0CBF4FF480634FF4807312F07E
S315020027C8005F18BF43F0010345E71A469EE700BFBC
S315020027D8A0220822D34D621083DE1B434344415292
S315020027E8003020400050234000E001402DE9F04F20
S315020027F80026D1F814A04160CA68984B82610A691A
S315020028080446C0E907620A880D4603EB42230360C1
S31502002818D1F814908B7899F8022083B05B03002ACA
S3150200282840F0088199F8042043F45078002A40F0D1
S3150200283808811FFA88F8A4F8148099F8027099F8A2
S3150200284803303F022E7903F03F0307F47C571F43F8
S31502002858EB78F60346EA430699F8013046EA431648
S3150200286899F800300093EFF310824FF0010B0192B2
S315020028788BF310887A482988C368C1F110010BFACC
S3150200288801F123EA0101C160C1689620594600F0A8
S31502002898ADFB019A82F3108847F6FF5208EA02084E
S315020028A82268BFB2A2F800802268B6B217822268EE
S315020028B8009BD6812268137399F806302268A3EB27
S315020028C80B03B3FA83F35B0982F8D03095F9063025
S315020028D8002B25DB6A7A03F1604112016148D2B204
S315020028E801F5614181F800235F4A40F8234003F568
S315020028F8C65152F8210020F4803042F8210052F8DD
S315020029082120BFF35F8F03F01F025B099B0003F1CF
S3150200291860430BFA02F203F56143C3F880211A6099
S3150200292895F90730002B26DBAA7A03F160411201DA
S315020029384C48D2B201F5614181F800234A4A40F86F
S31502002948234003F5C65152F8210020F4803042F89C
S31502002958210052F82120BFF35F8F01215A09920004
S3150200296803F01F0302F1604202F5614201FA03F322
S31502002978C2F8803113609AF90730002B27DB9AF8E0
S31502002988092003F1604112013648D2B201F56141CC
S3150200299881F80023344A40F8234003F5C65152F819
S315020029A8210020F4803042F8210052F82120BFF39A
S315020029B85F8F01215A09920003F01F0302F1604258
S315020029C802F5614201FA03F3C2F8803113609AF9FB
S315020029D80830002B27DB9AF80A20224D03F16040C3
S315020029E812012149D2B200F5614080F8002303F5AD
S315020029F8C65245F8234051F8220020F4803041F8A7
S31502002A08220051F82220BFF35F8F01215A09920052
S31502002A1803F01F0302F1604202F5614201FA03F371
S31502002A28C2F8803113600020104B2061A36003B006
S31502002A38BDE8F08F3F2A99F8041043F4107808D1BC
S31502002A4811B148F08008F4E643F4024848F0400819
S31502002A58EFE600293FF4EDAEF3E700BF002033406E
S31502002A680030204050220822006000404344415270
S31502002A78002170B5C0E90211436893F906205C6922
S31502002A888A4210DB012502F01F06B5405309364E6D
S31502002A98203346F82350BFF34F8FBFF36F8F334B64
S31502002AA843F82210436893F90730002B11DB012102
S31502002AB82D4D5A0903F01F0C203201FA0CF145F884
S31502002AC82210BFF34F8FBFF36F8F0021274A42F8B8
S31502002AD8231094F90730002B11DB0121224D5A09E4
S31502002AE803F01F0C203201FA0CF145F82210BFF34D
S31502002AF84F8FBFF36F8F00211C4A42F8231094F9B7
S31502002B080830002B10DB0121174C5A0903F01F0568
S31502002B182032A94044F82210BFF34F8FBFF36F8FBC
S31502002B280021124A42F82310002403681C82036813
S31502002B381C800368A3F86640EFF31085012181F330
S31502002B48108843680A4A1B88D068C3F1100301FA41
S31502002B5803F30343D360D368962000F047FA85F35C
S31502002B681088204670BD00BF00E100E0502208220E
S31502002B78003020401E4A92F8263092F82420DBB212
S31502002B8802F00F02A2F1080103292BD8DFE801F0AF
S31502002B9820160C021749184A51F82330A2FB0323C0
S31502002BA81B09164A136070471249134A51F8233013
S31502002BB8A2FB0323114ADB08136070470D490E4A2C
S31502002BC851F82330A2FB03230C4A9B081360704773
S31502002BD80849094A51F82330A2FB0323074A5B082E
S31502002BE813607047034951F82330D340D9E700BF31
S31502002BF800E0014080200022ABAAAAAAA02208224D
S31502002C08704700BF4AF20351F8B53F4B3F4AB3F843
S31502002C18FA53A3F8FA1353680646DB03ADB223D474
S31502002C28EFF31087012484F31088536843F4803342
S31502002C38536053689620214600F0D8F987F3108826
S31502002C48314B334993F8752093F86D3002F00F0231
S31502002C5803F0070351F82200072B50D8DFE803F0E8
S31502002C680606064D4B4547490024E9E7012202FAC2
S31502002C7803F3B0FBF3F00121264BA3FB0030800CD3
S31502002C88884000F0B3F9204A92F8753043F04003C1
S31502002C9882F8753092F87530DB09FBD073781A49D9
S31502002CA882F86D30337843F0400382F87530337812
S31502002CB882F8753091F87530DB09FBD17CB1EFF3F8
S31502002CC81084012181F31088104B5A6822F480324D
S31502002CD85A605B68962000F089F984F310880A4BDB
S31502002CE845F42545A3F8FA53F8BD0323C1E705239E
S31502002CF8BFE70A23BDE70823BBE70623B9E7102285
S31502002D08083B02FA03F3B4E700E001400030204032
S31502002D188020002283DE1B434AF203500123F0B5CA
S31502002D287749784AA1F8FA0383B0938093889BB2CD
S31502002D38002BFBD101219FED6A4B9FED6B5B724B1A
S31502002D487248734C9FED6A6B9FED6B7BC3E9084033
S31502002D58704898621180A3EC045F83ED007FFFF749
S31502002D6809FF09220A21664B83F8501A83F8A22022
S31502002D7893F8002C22B993F8013C980700F0AB802F
S31502002D885F4C94F8003C002B00F09A8000225C4BC2
S31502002D9883F8012C83F8002C0023594A82F8323032
S31502002DA892F83C301907FBD5002346F2023640F268
S31502002DB8533549F6037040F21131514CA2F8486076
S31502002DC8A2F84E5082F84A301085A2F84C1082F8C2
S31502002DD82A3094F83C309B06FBD5042201250526A9
S31502002DE8484B4D4F1A77276284F8245084F8266098
S31502002DF8FFF7C0FE2946962000F0F8F8002384F86B
S31502002E0824302762FFF7B6FE2946962000F0EEF830
S31502002E1884F82660FFF7AEFE4AF201523F4B1A804B
S31502002E28BFF35F8F1D72BFF35F8F4FF42541198081
S31502002E3884F8305084F8525084F8535094F8743019
S31502002E482F4A43F0400384F8743092F87430DB0951
S31502002E58FBD0062048210823294C82F86C0082F808
S31502002E68741082F8743094F87430DB09FBD14FF091
S31502002E78060301A8ADF80430FFF7C4FE94F85530EE
S31502002E881F4A43F0400384F8553092F85530DB095F
S31502002E98FBD0C523042082F8540082F8553092F8F4
S31502002EA85530174903F0BF0382F8553091F855306B
S31502002EB8DB09FBD14FF42543A1F8FA3303B0F0BD81
S31502002EC80121C82084F8001C00F090F894F8003C10
S31502002ED8012BFBD15AE74FF47A70FFF791FE5BE7B5
S31502002EE8006CDC0200127A000080000000366E01D7
S31502002EF80080000000389C1C00C2EB0B00389C1CAA
S31502002F0800E0014000C10140802000225581F207FD
S31502002F18001C4E0E00C2EB0B322312310020004079
S31502002F28014B53F8200070478020002238B500254F
S31502002F38284C0121C82084F8285000F057F884F854
S31502002F48245094F82430002BFBD194F824302149DC
S31502002F5843F0020384F8243091F82430C3F3400086
S31502002F689B07F9D41B4A81F8220092F8223003F013
S31502002F78FF00002BF9D192F84030164960F3C713C7
S31502002F8882F8403091F84030DB09FBD191F84200D3
S31502002F98104A63F3C71081F8420092F84230DB09FF
S31502002FA8FBD192F844000B4963F3C71082F8440038
S31502002FB891F84430C3F3C014DB09F9D1012000F0BB
S31502002FC8C1F8054B012083F84C4CBDE8384000F0A7
S31502002FD889B800BF0020204000E0014000BEFEE79D
S31502002FE8A0F101000028FBD1704700BF1E4B1F4A03
S31502002FF81B6800FB01F1934213D302F1854202F5E5
S31502003008071203F5742302F6834203F23F23A2FB57
S3150200301803239B0CA3FB01314FF0FF30E1B1FFF70D
S31502003028DFBF4FF47A7210B4114C4FF0FF30B4FB85
S31502003038F3F3A1FB02C434B9BCFBF3F080B15DF82B
S31502003048044BFFF7CDBFB1FBF3F1A1FB0212002A35
S31502003058F5D1084620B1F2E71846002BDFD17047B2
S315020030685DF8044B704700BFA022082200127A00BE
S3150200307800CA9A3B70B500240D4B0E4EB3F80021D8
S31502003088B3F82051ADB2154025FA04F3DB0704D58F
S3150200309856F82430E0B203B198470134102CF3D124
S315020030A8034AA2F81051B2F820311D42FBD170BD75
S315020030B800C00040082208220022112310B4074843
S315020030C8074C30F8021F02F5C65C013209B144F812
S315020030D82C10013BF5D15DF8044B7047669F02023E
S315020030E800600040EFF31081012383F31088124B2E
S315020030F833F8102092B22AB133F81020013A92B26C
S3150200310823F8102033F810309BB293B910B40B4A47
S315020031180B4CB2F8FA3334F810009BB243F4254349
S3150200312823EA0003A2F8FA3381F310885DF8044B08
S31502003138704781F3108870479422082200E0014004
S31502003148ECA1020230B4EFF31081012383F3108855
S315020031580E4A32F810309BB26BB90D4C0D4DB4F8CD
S31502003168FA3335F810C09BB243EA0C0343F42543FD
S315020031789BB2A4F8FA3332F8103001339BB222F824
S31502003188103081F3108830BC704700BF94220822A1
S3150200319800E00140ECA1020208B519F025FD0C2257
S315020031A803461A604FF0FF3008BD00BF00BE7047E5
S315020031B808B500F035F8FDF76BF8FEE7F8B5174FD6
S315020031C805463E68A6B17C6806EB460604EB86060B
S315020031D802E00C34B4420BD0637AAB42F9D1D4E99B
S315020031E800020021121A0C3419F0D6FCB442F3D1AB
S315020031F8BE6896B1FC6804EB061602E01034A642D5
S315020032080BD0637BAB42F9D1D4E90002A168121A4A
S31502003218103419F0FBFCA642F3D1F8BD6CA00202E9
S31502003228F8B5744A744B5A61BFF34F8FBFF36F8F69
S315020032381B6803F47002B2F5801F00F0B48013F421
S31502003248600F00F09C806D4A136843F00403136014
S31502003258BFF34F8FBFF36F8F4FF47002684B664C04
S315020032680020C4F88820A360FDF702F80025FFF7BE
S3150200327853FD4AF202514FF42542624B0120A3F84C
S31502003288FA1383F8B05AA3F8FA23FCF7F1FF5E4B58
S3150200329883F30A88594B1A68920704D5A268B2F1D1
S315020032A8007F00F084800020FFF788FFFFF762FCAA
S315020032B8FFF73CFE0320FFF745FF00234FF00C0EF5
S315020032C81C464EF001E0514903F10C0221F8224056
S315020032D801330FF007C80320FFF704FF0320FFF7A7
S315020032E831FF4B4B03205C609C60DC601C61454CE3
S315020032F8FFF7F8FED4F8D8339B0727D5D4F8D83386
S315020033080220FCF7B5FF0120FFF758FFBFF34F8FE6
S31502003318BFF36F8F0024384BC3F85042BFF34F8F69
S31502003328BFF36F8F3B4B3C4D5B1BA3424FEAA30691
S3150200333805DD55F8043B01349847A642F9DCFFF748
S31502003348BBFEBDE8F840002000F068B894F81031DA
S31502003358002BD5D00120FFF7F5FE94F8103103F0C3
S31502003368C003802BF9D10023264A84F8103192F83B
S3150200337810313F2BFBD80120FFF7B4FEC0E71F4AE6
S31502003388136843F004031360BFF34F8FBFF36F8FC5
S315020033984FF0E022936843F480339360BFF34F8F74
S315020033A8BFF36F8F58E719077FF44DAF47E701213F
S315020033B81A695869C2F3C302093201FA02F30026EE
S315020033C80027DB0843F005C0E5E802670FF005C0F1
S315020033D8C0F3C303093301FA03F34FF00052DB08C3
S315020033E843F007C0AFF30080E2E802670FF005C0BA
S315020033F859E700BF01020E0000ED00E000E001E01F
S315020034080000000200E0014080000022000D40405A
S3150200341800402040F4060302F0060302704700BF8C
S3150200342870B50678D6B9044602F09EFCC31E012B77
S3150200343805460CD9A388013B9BB2A38083B9012117
S315020034480A4802F001FC63882846A38070BD012160
S315020034580748217002F0F8FB032D03D04FF0FF3521
S31502003468284670BD3146034815F0FCFCA4F3010258
S31502003478A0F3010260BD0202002370B594B00546AE
S3150200348802A80E46144603930BF0A6FA70BBE10691
S3150200349824D4620669D4A3066ED429462D68324618
S315020034A8684614F083F829466846C4F3800206F093
S315020034B877FA054620063CD5284615F0C9FE4FF090
S315020034C8FF3002F049FB012017F024F90BF056FAF7
S315020034D8E10722D40124204614B070BD0346D5E97B
S315020034E80121E1200AF06AF90546D6E74FF0FF30D6
S315020034F802F032FB022017F00DF962061DD4E3072B
S3150200350820D4039B2249186813F06CFD044638B38D
S315020035184FF48074204614B070BD01211D4802F094
S3150200352893FB012401211B4802F08EFB204614B0AE
S3150200353870BD032002F010FBBEE7AB682868984707
S31502003548E307DED50121134802F07EFB039B1049EF
S31502003558186813F047FD0446A8B14FF48074E1E7F2
S3150200356803990D480BF0DCFAB5E795E80E00E12061
S315020035780AF0DCF8054690E7284614F0B9FF02F08F
S3150200358873FA054689E7039903480BF0C9FAC9E7AE
S3150200359884BD0202A0F3010274B50202027802B1E6
S315020035A8704708B5012103460448197002F04CFB1E
S315020035B802F0DAFB03380128FAD808BDA0F30102A3
S315020035C870B5431E86B0032B70D8DFE803F02C1EB5
S315020035D81702394C394802F09DFBA06E4368002B4E
S315020035E82FD011220121FFF747FFC3050BD4002272
S315020035F8A36E33485A6002F08DFB03E000222E4B7D
S315020036089B6E5A60002006B070BD00234FF0000181
S31502003618294A2C4C956E2C4A6B6002202370118025
S3150200362800F060F8EEE7244CA36E5968022904D12B
S315020036389B6893F90020052A0CD0244802F06AFBFD
S31502003648D5E7234802F066FBA06E18F0BBFC4FF4E0
S315020036588070D8E793F90150412D03D01D4802F036
S31502003668F3FAC4E71C4802F0EFFA01264FF080038A
S3150200367803216846ADF800308DF8026002F0E4FADC
S315020036884FF080104FF0000C144A154B059201AA10
S315020036980392CDF806002A46314603A88DF804C0DF
S315020036A80493FFF7E9FEC205ADD4A0E7024BC1B207
S315020036B8986E18F0EDFCA5E728270822C8F3010240
S315020036C82C5E0202AA220822A8220822ACF30102D0
S315020036D8C4F30102F8A10202A8F30102A535000209
S315020036E82934000230B5534D83B06B7803B30328EF
S315020036F8044649D004280ED04F4BC1B2986E18F032
S31502003708C7FC0D2C45D0012101A88DF8044002F012
S315020037189BFA00200AE0484C484802F0FBFA1622B7
S315020037280121A06EFFF7A8FEC2051AD503B030BD67
S3150200373800F040F92B78FBB1032825D004285BD08A
S315020037480028E6DB3C4CA06E18F082FC14F0BEFFA3
S31502003758002853D116220021A06EFFF78DFEC3055D
S31502003768E4D400204FF00003A26E35495060A06EE3
S315020037782B8000F0E5F8CCE7431E042B46D8DFE899
S3150200378803F0312003160C002C4802F0C3FA2A4C27
S31502003798E7E72C4802F0BEFABBE72B4802F0BAFA72
S315020037A800210123244A6B70926E5160B1E72348C7
S315020037B802F0B0FA204B986E18F004FC4FF48070B1
S315020037C8B4E71E4802F0A6FA204802F0A3FA2048F7
S315020037D802F0A0FA194802F09DFA1E4802F09AFA77
S315020037E8154CBEE701241C4B14481C7002F092FAD1
S315020037F82046FFF7E5FE8CE70F4CABE7A06E0A21E1
S3150200380818F046FC154800F091F882E7002880DB9C
S31502003818094CA06E18F01CFC14F058FF002899D029
S31502003828A06E0A2118F034FC01230C482B7000F014
S315020038387DF86EE7A822082228270822C4F3010287
S315020038487CF401026CF401023CF40102CCF301029D
S31502003858F8F3010214F40102AA22082274F40102FE
S3150200386810B5202018F0BCFB4FF00002094B0A4C99
S315020038780A49A0661A8000F063F8094B18780128ED
S3150200388804D0BDE810400220FFF72CBFBDE8104067
S31502003898FFF796BEA82208222827082288F40102E2
S315020038A8AA220822012210B5074B084C1B7822705F
S315020038B8934204D0FFF716FF0023237010BDFFF7CB
S315020038C87FFE0023237010BDAA220822A422082202
S315020038D80428034603D801460F4802F0B5B900B5D5
S315020038E883B0062168460D4A19F0F8F805280146FC
S315020038F80CDC442200F108036B446846013103F8E4
S31502003908082C02F0A1F903B05DF804FB5421044B1C
S31502003918044A0548FFF762FB84F401028CF40102AB
S3150200392894F40102FCA10202B8F40102034B1A68DC
S31502003938986152685A601A6102F0ECB9B0220822FC
S315020039480022094B30B400244FF0FF351A7502469F
S31502003958C3E902451A60526899615A601A610846B3
S3150200396830BC02F0D7B900BFB0220822F8B590F9E8
S315020039780030D3B10D4F0446F86E18B1214619F03E
S315020039883BF990B1204619F04EF9461C304609F02B
S3150200399843FF054648B13246214619F037F904492C
S315020039A81C22081D19F0DEF8FD66F8BD2827082234
S315020039B8942708222DE9F041B14C82B02368A56804
S315020039C85E68042D04D8DFE805F01D6168700B00F7
S315020039D80023A3604FF0FF35284602B0BDE8F08108
S315020039E846287DD04828F3D1002326696568A36056
S315020039F8701B9842EEDDFFF76BFF23692B449B1B76
S31502003A082361E7E7421E042A7AD86268964200F0E2
S31502003A1812810128E8D00228DCDDC21E182AD9D86C
S31502003A2801A151F822F000BF3F3C0002DD39000235
S31502003A38E93A0002DD390002DD390002493C00029A
S31502003A48953C0002DD390002DD390002DD3900024B
S31502003A58713C0002DD390002DD390002DD3900025F
S31502003A68DD390002DD390002DD390002DD390002E6
S31502003A78DD390002DD390002DD390002DD390002D6
S31502003A88DD390002DD390002E53C00024F2875D017
S31502003A985B289DD10223A3609CE7A0F13002092A84
S31502003AA852D803232075A36094E77E2890D194F90F
S31502003AB81420313A072A8BD801A151F822F000BF07
S31502003AC8F1390002D9390002233C0002E93A000220
S31502003AD8D9390002D9390002F1390002E93A00025D
S31502003AE800212269A160B61A8E427FF773AF9868E1
S31502003AF83146104402F0A8F823693344236169E782
S31502003B081B2888DD7E2800F398801F287FF762AF7E
S31502003B1802462169184618F031FB012522685168C8
S31502003B288E4200F2DE8023699068C91A184402F0B0
S31502003B388BF8226823695068C01A401BFFF7C8FE33
S31502003B4823692B44236145E70021A0F14102A160C4
S31502003B58072A3FF63FAF01A151F822F0F73B0002D0
S31502003B68AF3B0002A33B00028B3B0002DD39000299
S31502003B78E93A0002DD390002F13900020423A360A2
S31502003B8828E7226963689A427FF624AF0120FFF785
S31502003B989FFE2369013B23611CE72269B242BFF4F7
S31502003BA819AF0126A3E7E268002AFFF613AF616898
S31502003BB81846013A711AE26018F0F8FAE368002B1F
S31502003BC880F2A980D4E90027D4F810805168A8EBBE
S31502003BD807000028A1EB0705A2DDFFF779FE236996
S31502003BE822683B44A3EB08032361516898E7E2681D
S31502003BF8062A3FF7EFAE234902F11B0001EB8001CB
S31502003C084868013200283FF4E5AE6068E260586011
S31502003C181846496818F084FAD4E72169B142BFF414
S31502003C28D7AE0122184618F0C9FA002322681D46A3
S31502003C385168A36074E70546CEE67F287FF4CAAECC
S31502003C482169626891427FF6C5AE1846012201399A
S31502003C5818F0B4FA0120FFF73BFE23692268013BFC
S31502003C680025516823615BE7074802F053F820688C
S31502003C7818F0EEF963681844FFF778FEACE600BF61
S31502003C88B022082228270822C4F3010221699A6869
S31502003C9836B10A4412F9010C16F0E8FF40BB236854
S31502003CA86268986821691044891A01AB1D4A14F0A2
S31502003CB80FFE054600283FF48DAE431C29D1A069A4
S31502003CC802F028F8D4E9002321699068C91A184431
S31502003CD801F0BAFF22680025516821E70123A36093
S31502003CE878E60321104801F0AFFF226851681AE707
S31502003CF804250E4B002700E0019B5A1C21690192FC
S31502003D0839441A782068013718F020FAAF42F3D1FD
S31502003D1804E7019BEEE7064A206802EB8303D96EA5
S31502003D2878E700BF74B50202ECF40102E4F401027A
S31502003D38282708220B4602495A680AF007BE00BF1E
S31502003D48F0F4010210B51C46084611464FF002125D
S31502003D5802F012F820680AF063FF012801D103482D
S31502003D6810BD02460249034815F006F988A2020266
S31502003D78F8F4010248BA020210B501280C6882B0AA
S31502003D880FD048680BF0FEF92379012B02D00620E2
S31502003D9802B010BD024640F601210848FDF706FCAE
S31502003DA8F5E721890DF107020448FDF7EDFB9DF8B9
S31502003DB807000EF0C9FF02B010BD00BFD0200822CE
S31502003DC80379012B01D00620704700B583B00DF1A7
S31502003DD8070240F601210848FDF7D6FB9DF80720A1
S31502003DE840F60121013A18BF01220348FDF7DEFB1E
S31502003DF8062003B05DF804FBD020082208B5037933
S31502003E08012B01D0062008BD002240F601210248F6
S31502003E18FDF7CCFB062008BDD02008220279012A2C
S31502003E2801D00620704708B540F601210248FDF781
S31502003E38BDFB062008BD00BFD020082210B568B910
S31502003E480A4A0B4B1446127872B9DA68596812682C
S31502003E581868904708B90123237010BD054A064B16
S31502003E6814461278002AF0D0002010BDCD2208226E
S31502003E78E89A0202CC220822309B0202F0B50446D6
S31502003E8887B0407AFFF7DAFF002864D1676894F8AA
S31502003E9808C0BE68BCF1070F01AD0FCE0FC588BFBB
S31502003EA80122336888BF02FA0CF22B6098BF324BA4
S31502003EB8F86898BF53F82C20019B01A91343019374
S31502003EC843683868984700284BD16368DA681868E7
S31502003ED893689847002849D101F07EFD0546636834
S31502003EE86946DA6818685369984728BB01F074FD71
S31502003EF8401BC82825D8012016F00CFC9DF8003076
S31502003F08002BECD1636894F90810DA68186893698B
S31502003F180DF102029847C0B9BDF802301748C3EB43
S31502003F280343A0FB03201B1A00EB5300C0F3CF2068
S31502003F380EF01EFF07B0F0BD02461149114815F0F2
S31502003F481BF811490F4814F08DFF0346227A0F49D0
S31502003F580C4815F011F80346627A0D49094815F01E
S31502003F680BF802460B49074815F006F802460A49B5
S31502003F78044815F001F800BF94A2020201011000DC
S31502003F8874F50102FCBA020294F50102A8F50102CF
S31502003F9810F5010230F5010254F501020A460249FA
S31502003FA8137A527A0AF0D2BCCCF501022DE9F04115
S31502003FB80C4684B00746754811461A4602AB019369
S31502003FC800900123204601F04FFF714B714A029C73
S31502003FD8934200F0CD80704A934200F0C3806F4A44
S31502003FE8934200F0B9806E498B4200F0AF80A10778
S31502003FF81CD12168994200F0898091421AD0204644
S315020040080AF00EFE85B200230A211C46654E36F8D2
S3150200401813C0AC451FD0013904F1010403F10303AF
S31502004028F5D12A466049614814F0A6FF04F0070351
S31502004038022BE4D1204603A910F05CFF039B032B55
S31502004048DDD990F90020502AD9D1042B60D0052B4E
S315020040585ED00025D7E70C2009F0D2FB4FF0000C02
S3150200406804EB4404804606EB4406B078504B6045A0
S31502004078504A18BF1A46C8F80070738831795BBA75
S3150200408888F80AC0C8F80420A8F8083039B9FFF732
S31502004098D5FE002872D1404604B0BDE8F081290A4F
S315020040A8EDB2EFF31080012383F31088424B1A68AE
S315020040B81AB94026414C227526751A6801321A60C9
S315020040C880F310883E4A05EB011552F8251021F4B3
S315020040D8803142F8251052F8251041F4004142F881
S315020040E82510EFF31082012181F31088196811B1A6
S315020040F81968013919601B681BB980202F490B758D
S31502004108087582F3108898F80900C0E7A5887AE747
S3150200411890F9011090F9035090F9022090F90430B1
S315020041283039A5F1300001EB8101303A00EB80000D
S31502004138303B03EB400302EB410242EA03010F293B
S315020041483FF65DAF43EA02239DB25CE74E211D4B63
S315020041581D4A1E48FEF742FF4E211D4B1A4A1B48AE
S31502004168FEF73CFF4E211B4B174A1848FEF736FF4F
S315020041784E21194B144A1548FEF730FF034698F8A4
S3150200418809201649164814F0F7FE00BFC8A2020213
S3150200419888A40202ECB6020298C0020204C602020F
S315020041A828C3020210A3020294F6010248BA0202C6
S315020041B8309B0202E89A020248220822000D404079
S315020041C80008404070F60102B4A2020208F6010293
S315020041D850F6010230F60102E8F5010210F5010275
S315020041E8FCBA02020B4602491A790AF0AFBB00BFB3
S315020041F8B8F60102F0B58E4687B0044676481146EF
S315020042081A4604AB019300900123704601F02CFE76
S31502004218724B734A049D934200F0CC80714A9342D2
S3150200422800F0CE80704A934200F0BE806F498B42FE
S3150200423800F0CC80A90710D12968994222D0914270
S315020042480FD028460AF0ECFC82B20E2A1CD00F2A9E
S315020042587BD06749674814F08FFE05F00703022BE7
S31502004268EFD1284605A910F045FE059B032BE8D990
S3150200427890F90020502AE4D1042B77D0052B75D06B
S315020042880022E6E7AA88E0E700270820039209F059
S31502004298B7FA00260546584B032003EB87039B789B
S315020042A82C602B716E71FEF74DFF544BD96866F37D
S315020042B81451D960EFF31080012383F31088504B11
S315020042C8039A196819B94F4C217540212175196845
S315020042D80131196080F310884B4951F8220020F405
S315020042E8803041F8220051F8220040F4004041F89B
S315020042F82200EFF31082012181F31088196811B1A7
S315020043081968013919601B681BB980203D490B756C
S31502004318087582F310882B793C4AC3B1137A43F0A5
S31502004328800313722B79BBB9384B1A7942F04002D3
S315020043381A711A7942F020021A710320FEF7D2FE88
S31502004348012328466B7107B0F0BD01279DE7137A52
S3150200435843F040031372E5E72C4B1A7942F08002C8
S315020043681A711A7942F020021A71E6E790F90110D9
S3150200437890F9036090F9022090F904303039A6F1D9
S31502004388300001EB8101303A00EB8000303B03EB51
S31502004398400302EB410242EA03010F293FF651AFFD
S315020043A843EA02239AB250E73A21194B194A1A48A4
S315020043B8FEF714FE3A21194B164A1748FEF70EFE67
S315020043C83A21174B134A1448FEF708FE3A21154BB1
S315020043D8104A1148FEF702FE60A3020288A40202EE
S315020043E8ECB6020298C0020204C6020228C30202FE
S315020043F8F0F6010248BA0202A8A3020200302040DF
S3150200440848220822000D4040000840400030334050
S3150200441850F601024CA30202C8F60102E8F50102AF
S3150200442830F6010270F6010210B5437904468BB1E3
S3150200443808460AF0F5FBFF2810D80A4AC0EB0033F3
S31502004448A2FB03232179084AC3F3CF1322F81130BA
S31502004458062010BD0549064814F004FD054814F067
S31502004468C5FD00BF818080800030334038F70102E5
S31502004478FCBA02024CF7010203684BB10022017929
S3150200448819751A610279911E012902D9012A03D0E6
S31502004498704701225A737047122119615A7370477D
S315020044A80B46D3E901235268014912780AF04EBA3B
S315020044B864F70102F0B50D4685B006462548114651
S315020044C81A4602AB019300900223284601F0CCFC5F
S315020044D8029B012B28D1039D1F4B9D4202D01F4BE5
S315020044E89D4233D1182009F08BF9044600231C4A51
S315020044F86373C4E90062D2E901172361A5602373D5
S3150200450823753B68106898470346D0B90125606849
S315020045182573856822466D6912490068A8470546CB
S3150200452828B9204605B0F0BD0F4814F05FFD636850
S3150200453899681868CB6998472A460C490C4814F0BA
S315020045481BFD02460B490A4814F016FD0A4814F0E8
S315020045584DFD00BFB0A30202A0860100801A060024
S315020045686C9A02028144000278F70102E0F701021E
S31502004578FCBA0202C0F70102A0F70102037B53B19B
S3150200458810B5436804469A681868D36998470023A1
S315020045982373062010BD0620704700BF2DE9F0419F
S315020045A8037B002B43D00021044608460FF0AAF8E5
S315020045B80825804602E00135782D35D06368012248
S315020045C89868294607691868B84703460028F2D149
S315020045D86768607320612075B8681A468668194646
S315020045E83868B0470028E6D101F0F6F9637B07463A
S315020045F86BB901F0F1F9C01B0A28DCD8012016F0C4
S3150200460889F8642001F0E4F9637B002BF1D0236971
S31502004618002BD0D128460EF097FB013501464046BD
S315020046280EF0EAFC782DC9D14046BDE8F081024970
S31502004638024814F017FC00BF00F80102FCBA020295
S315020046482DE9F0430646D1E9004085B00D460AF049
S31502004658E7FA8146A8680AF0E3FA042E074660D804
S31502004668237B002B77D04FF008080522E86801A9BA
S315020046780AF0AEFE636801229D68186849462B69EE
S315020046889847002862D1029D05EBE805284609F0FD
S31502004698B7F8B8F1080F0646FBB23BD03F120770CF
S315020046A84370DDE90112023018F0B0FA002360689F
S315020046B86373236123752A4685683146AD680068A7
S315020046C8A8470546002839D101F086F9637B0546D5
S315020046D843B115E0012016F01DF8642001F078F9BF
S315020046E8637B6BB901F078F9401B6428F2D930462E
S315020046F809F0B0F81424224619491A4814F03CFC69
S315020047082469304609F0A6F8002CF4D1062005B033
S31502004718BDE8F08300F8013BDDE9011218F076FAEC
S31502004728C4E728690AF07CFA237B80469BB10828ED
S3150200473899D0102899D00C4814F058FC304609F044
S3150200474889F82A460949074814F016FC0246084918
S31502004758044814F011FC0749024814F083FB00BF11
S3150200476874F80102FCBA020214F8010250F80102B6
S3150200477830F8010200F8010270B5D1E9004084B0B0
S315020047880D460AF04DFA237B002B3BD0064605223E
S31502004798A86801A90AF01CFE029B002B2FD06368A9
S315020047A801229868314605691868A847002832D157
S315020047B86568607320612075AA680123966828686F
S315020047C8DDE90112B04708BB01F006F9637B05462D
S315020047D843B111E0012015F09DFF642001F0F8F8BD
S315020047E8637B4BB901F0F8F8401B6428F2D914220E
S315020047F80B490C4814F0C0FB2269002AF8D106209E
S3150200480804B070BD0849074814F02CFB0246074954
S31502004818044814F0B1FB02460549024814F0ACFB01
S31502004828B8F80102FCBA020200F8010298F801027D
S3150200483830F80102F8B5D1E900400D460AF0F0F960
S315020048480146A8680D460AF0EBF9237B002B4BD0EC
S315020048580028064642DD08F0D3FF636829469D68AC
S315020048680122074618682B6998470546002847D14A
S315020048786268607320612075916810684D6801232B
S3150200488832463946A847054690BB01F0A5F8637B30
S31502004898054643B115E0012015F03CFF642001F0FE
S315020048A897F8637B6BB901F097F8431B642BF2D92F
S315020048B81424384608F0CEFF22461549154814F046
S315020048C85BFB2469002CF4D13146384610F06CFAA9
S315020048D80446384608F0BEFF2046F8BD0021BDE86A
S315020048E8F840084610F060BA0B490A4814F0BAFABA
S315020048F8384608F0AFFF2A460849064814F03CFB3A
S31502004908384608F0A7FF2A460549024814F034FB40
S31502004918F8F80102FCBA020200F80102D8F801020C
S3150200492830F801022DE9F0438046D1E9004085B00E
S315020049380E460AF075F98146B0680AF071F907461B
S31502004948F0680AF06DF9B8F1040F054600F2918095
S31502004958237B002B00F0A3804FF00808002D40F3BC
S315020049689780284608F04CFF63680122D3F808C0EE
S31502004978494606461868DCF8103098470346002868
S3150200498840F09180B8F1080F607362682061F9B24D
S31502004998207528D091687FBA1068ADF80C7002228B
S315020049A88F6803A9B8470746002F40F0868001F0B2
S315020049B813F8637B074643B11FE0012015F0AAFEF0
S315020049C8642001F005F8637BBBB901F005F8C31B47
S315020049D8322BF2D91427304608F03CFF3A463F49B3
S315020049E83F4814F0C9FA8DF80C10916810688F6860
S315020049F8012203A9B8470746D6E72769002FEAD155
S31502004A086268677327612775916810684F68012382
S31502004A182A463146B8470746002856D100F0DCFF39
S31502004A28637B074643B115E0012015F073FE642047
S31502004A3800F0CEFF637B6BB900F0CEFFC31B642B7D
S31502004A48F2D91424304608F005FF2246254924489F
S31502004A5814F092FA2469002CF4D12946304610F053
S31502004A68A3F90446304608F0F5FE204605B0BDE82F
S31502004A78F08330690AF0D4F8237B80467BB1082894
S31502004A883FF46AAF10283FF469AF174814F0AEFA3C
S31502004A980021084605B0BDE8F04310F085B9134970
S31502004AA80F4814F0DFF90190304608F0D3FE019B57
S31502004AB80F491A460A4814F05FFA304608F0CAFE49
S31502004AC83A460C49064814F057FA304608F0C2FE30
S31502004AD83A460949024814F04FFA00BF3CF9010266
S31502004AE8FCBA020280F9010214F8010200F8010276
S31502004AF830F8010218F9010260F90102036823B1CC
S31502004B08186810B1596815F0DDBD70472DE9F043F4
S31502004B18404C8BB003ADCDE90045022351F8044B56
S31502004B28013801F03BF9DDE903856B1E022B65D8D6
S31502004B38A288082A59D1DFF8FC90D9F80860D9F872
S31502004B480070336938469847B8F1000F42D0B8F179
S31502004B58060F3FD040460AF047F8002851D0206990
S31502004B68002846D0C0F80080236944F210025C602F
S31502004B78236929489D60E368A188012B18BF4FF471
S31502004B888042FCF7FDFD012DD9F8043003D0023D21
S31502004B9818BF01256D009C460DF1140EBCE80F00E6
S31502004BA8AEE80F00DCF80030DFF88C80CEF8003073
S31502004BB823698DF81750CDF81C8008933846336858
S31502004BC805A9984700BB38467368984706200BB074
S31502004BD8BDE8F08320690028F8D008F03BFE0023E0
S31502004BE8062023610BB0BDE8F0830C490C4814F08B
S31502004BF8C3F90C2008F004FE2061B3E7094814F053
S31502004C08F5F9094814F0FAF902460849084814F071
S31502004C18B3F900BF78A40202D0200822D0F9010213
S31502004C2848BA0202A4F9010210FA01022CFA010298
S31502004C38FCBA0202089A0202054B000210B50128C4
S31502004C480C6882B00CD048680AF09CFAA188024621
S31502004C580F48FCF7ABFC0346062073B902B010BD39
S31502004C68A1880B480DF10702FCF78EFC50B99DF896
S31502004C7807000EF069F802B010BDA2880549064879
S31502004C8814F07AF9A2880549034814F075F900BFA9
S31502004C98D02008225CFA0102FCBA020240FA01029A
S31502004CA80A4610B582B0D2E90234034992880094C2
S31502004CB809F04CFE02B010BD78FA010210B504469E
S31502004CC801220648A188FCF771FC08B9062010BD26
S31502004CD8A2880349034814F04FF900BFD0200822DE
S31502004CE85CFA0102FCBA02022DE9F0430D4687B0CE
S31502004CF880463E4811461A4603AB019300900323A9
S31502004D08284601F0B1F803980EF01EF809F088FF5C
S31502004D18C0F307230E2B0AD885B215F0F00906D17F
S31502004D283349EAB231F81330D340D80702D43148AE
S31502004D3814F05CF9049E711C25D0022E52D8059FE8
S31502004D487A1C27D0022F4AD8142008F059FD0023CE
S31502004D58012E0446C0E90267C0F800808580036117
S31502004D6816D0022E14BF1A46442242F01003012F0F
S31502004D7808BF1A4629462048FCF702FD50BB2046C2
S31502004D8807B0BDE8F083059F7B1C14D04E46D9E7D1
S31502004D980422EAE7142008F033FD012E0446C0E98E
S31502004DA80269C0F800808580C0F8109010D0022EE3
S31502004DB80CD14422DEE7142008F022FD0446C0E99D
S31502004DC80299C0F800808580C0F810900022D1E7C9
S31502004DD80422CFE7A2880949094814F0CDF8094800
S31502004DE814F004F9084814F001F900BF60A402029D
S31502004DF840A5020298FA0102D020082214FB0102F9
S31502004E08FCBA0202D8FA0102A8FA010210B504464F
S31502004E1800220648A188FCF7C9FB08B9062010BD7E
S31502004E28A2880349034814F0A7F800BFD020082235
S31502004E385CFA0102FCBA02022DE9F041037C05463E
S31502004E4833B143689A6818685369984700232B74E4
S31502004E58314FDFF8D080BC46C6466B682F4E5C6879
S31502004E680FCCACE80F000FCCACE80F002368CCF8E7
S31502004E7800306B685B681B6A59689A681868AEE8FE
S31502004E8807001B7BC7F820808EF80030AB6898F8BD
S31502004E9809205B00B6FBF3F3013BFF2B28BFFF2378
S31502004EA8297B22F0030288F8092088F808306A7BF1
S31502004EB801B10121EB7B003A18BF0122003B18BF62
S31502004EC80123A87BF9720828BA727B7316D16B681C
S31502004ED811499A68186813689847044658B901260A
S31502004EE868682E742346224684680D492469006838
S31502004EF8A047044630B92046BDE8F081032420467F
S31502004F08BDE8F0816B689A68186853699847002368
S31502004F182B742046BDE8F081E022082280D1F008F1
S31502004F28F9500002D022082230B5284C89B003ADC8
S31502004F38CDE90045052351F8044B013800F02EFF50
S31502004F48039B5A1C18BFA360049B18BF012205992C
S31502004F5808BF00225D1C1DBFDBB201222373237B1F
S31502004F68481C18BF6173069918BF01224D1C18BF49
S31502004F78A173079918BF0122481C1CBF0122E173BD
S31502004F88012B1FD8637B012B19D8A37B082B13D1BE
S31502004F98E37B012B0DD812B9062009B030BD204695
S31502004FA8FFF74AFF0028F7D002460949094813F0D5
S31502004FB8E3FF094814F01AF8084814F017F80848E5
S31502004FC814F014F8074814F011F800BF90A502026D
S31502004FD8ACFB0102FCBA020288FB010264FB010275
S31502004FE84CFB010234FB01028C4630B59CF80F508B
S31502004FF80D4B002D0D4C08BF1C46DCF804209CF80E
S315020050080C50526885B01278DCF8083000959CF886
S315020050180D50074901959CF80E50CDE9025409F046
S3150200502895FC05B030BD00BFCCFB0102D0FB0102E6
S31502005038D4FB01022DE9F0470D4688B08146234884
S3150200504811461A4602AB019300900623284600F041
S315020050580BFF029B012B24D1DDE903A6DDE90558E6
S31502005068012E079F2ED8012D29D8B8F1080F23D172
S31502005078012F1ED8142008F0C3FB0023144AC0F8D7
S3150200508808A0C0E900920673457380F80E80C773BC
S3150200509803740446FFF7D0FE30B9204608B0BDE8CF
S315020050A8F0870C4813F0A2FF02460B490B4813F08F
S315020050B863FF0B4813F09AFF0A4813F097FF0A4852
S315020050C813F094FF094813F091FF00BF60A502028E
S315020050D8A89A020218FC010240FC0102FCBA02026A
S315020050E888FB010264FB01024CFB010234FB01024C
S315020050F800210279094B012A1A72596006D0022A3E
S3150200510806D004D94FF49671012259601A70704775
S315020051181221012259601A70704700BF042308221F
S31502005128037C53B110B5436804469A6818685369F4
S31502005138984700232374062010BD0620704700BF37
S315020051480B4670B586B0D3E90050062203A90AF0C9
S315020051583FF92B7C002B3ED0049810B9062006B0E6
S3150200516870BD08F04DFB0021049A064617F014FD9F
S31502005178002207216B681C4C18689B6822700091F4
S31502005188DD68626031462272049B039AA847054687
S31502005198304608F05FFB15BB00F01EFC2378054677
S315020051A843B112E0012015F0B5FA642000F010FCB4
S315020051B8237853B900F010FC401BB0F57A7FF1D979
S315020051C814220A490A4813F0D7FE6268002AF8D15F
S315020051D8062006B070BD0749054813F043FE2A4665
S315020051E80549034813F0C8FE042308229CFC010261
S315020051F8FCBA020264FC010278FC010270B50D6871
S3150200520888B02B7C002B40D00C460522486802A9A0
S315020052180AF0DEF80622A06805A90AF0D9F8039B67
S31502005228069A93422ED153B3072600216A681B4C6D
S31502005238106892680096D5682170059A6160217295
S315020052480299A84728BB00F0C7FB2378054643B155
S3150200525812E0012015F05EFA642000F0B9FB23780B
S3150200526853B900F0B9FB401BB0F57A7FF1D9142285
S315020052780B490C4813F080FE6268002AF8D1062012
S3150200528808B070BD084813F0B1FE0849054813F086
S31502005298E9FD02460649034813F06EFE0423082276
S315020052A818FD0102FCBA0202C0FC010264FC0102FA
S315020052B8F0FC01022DE9F041D1E9008082B009F043
S315020052C8AFFC98F81030002B59D0002806464FDD5F
S315020052D808F096FA0746304608F092FA0021324656
S315020052E8054617F059FC00230721D8F804202A4C52
S315020052F8106823706360237293680091D3F80C8058
S31502005308294633463A46C047034628461D4608F00C
S31502005318A1FA002D37D100F05FFB2378054643B189
S3150200532817E0012015F0F6F9642000F051FB237806
S315020053387BB900F051FBA0EB050CBCF57A7FF0D9DE
S315020053481424384608F086FA22461449144813F0FB
S3150200535813FE6468002CF4D1314638460FF024FD5A
S315020053680446384608F076FA204602B0BDE8F081CF
S315020053780021084602B0BDE8F0410FF015BD094903
S31502005388074813F06FFD384608F064FA2A460649BC
S31502005398034813F0F1FD00BF0423082260FD010251
S315020053A8FCBA020264FC010240FD010270B50D68F6
S315020053B886B02B7C002B40D04868052203A90AF048
S315020053C807F8049810B9062006B070BD08F018FA56
S315020053D807216B68002205461C4C18689B680091D9
S315020053E8DE682270049B6260039922722A46B047DD
S315020053F802462846154608F02DFA15BB00F0ECFAC7
S315020054082378054643B112E0012015F083F964209A
S3150200541800F0DEFA237853B900F0DEFA401BB0F545
S315020054287A7FF1D914220A490A4813F0A5FD62685F
S31502005438002AF8D1062006B070BD0749054813F0C0
S3150200544811FD2A460549034813F096FD042308224E
S31502005458A0FD0102FCBA020264FC010280FD0102FF
S31502005468037C33B190F82430002B14BF1E200E2083
S3150200547870470E20704700BF00B50A4B83B0186804
S315020054880DF076FC0346084A009310680DF070FC8E
S31502005498034669460220019310F0EEFD03B05DF85B
S315020054A804FB00BF142308221023082230B5037C0C
S315020054B8044685B0E3B10846052201A909F088FF2A
S315020054C8029A82B163680199986885681868A8473C
S315020054D80828024607D078B9029884F824200DF0E5
S315020054E833FC05B030BD00200DF02EFC05B030BDF2
